{
  "contractName": "Vote",
  "abi": [
    {
      "inputs": [],
      "stateMutability": "nonpayable",
      "type": "constructor"
    },
    {
      "anonymous": false,
      "inputs": [
        {
          "indexed": false,
          "internalType": "string",
          "name": "electionName",
          "type": "string"
        },
        {
          "indexed": false,
          "internalType": "string",
          "name": "candidateName",
          "type": "string"
        }
      ],
      "name": "CandidateRegistered",
      "type": "event"
    },
    {
      "anonymous": false,
      "inputs": [
        {
          "indexed": false,
          "internalType": "string",
          "name": "electionName",
          "type": "string"
        },
        {
          "indexed": false,
          "internalType": "string",
          "name": "candidateName",
          "type": "string"
        },
        {
          "indexed": false,
          "internalType": "string",
          "name": "identifier",
          "type": "string"
        }
      ],
      "name": "VoteCasted",
      "type": "event"
    },
    {
      "anonymous": false,
      "inputs": [
        {
          "indexed": false,
          "internalType": "string",
          "name": "electionName",
          "type": "string"
        },
        {
          "indexed": false,
          "internalType": "string",
          "name": "winnerName",
          "type": "string"
        }
      ],
      "name": "WinnerDeclared",
      "type": "event"
    },
    {
      "inputs": [
        {
          "internalType": "string",
          "name": "",
          "type": "string"
        }
      ],
      "name": "candidates",
      "outputs": [
        {
          "internalType": "string",
          "name": "name",
          "type": "string"
        },
        {
          "internalType": "uint256",
          "name": "voteCount",
          "type": "uint256"
        },
        {
          "internalType": "string",
          "name": "registeredElection",
          "type": "string"
        },
        {
          "internalType": "string",
          "name": "symbol",
          "type": "string"
        }
      ],
      "stateMutability": "view",
      "type": "function",
      "constant": true
    },
    {
      "inputs": [
        {
          "internalType": "uint256",
          "name": "",
          "type": "uint256"
        }
      ],
      "name": "electionNames",
      "outputs": [
        {
          "internalType": "string",
          "name": "",
          "type": "string"
        }
      ],
      "stateMutability": "view",
      "type": "function",
      "constant": true
    },
    {
      "inputs": [
        {
          "internalType": "string",
          "name": "",
          "type": "string"
        }
      ],
      "name": "elections",
      "outputs": [
        {
          "internalType": "bool",
          "name": "isActive",
          "type": "bool"
        },
        {
          "internalType": "string",
          "name": "winner",
          "type": "string"
        },
        {
          "internalType": "string",
          "name": "role",
          "type": "string"
        },
        {
          "internalType": "uint256",
          "name": "timestamp",
          "type": "uint256"
        },
        {
          "internalType": "enum Vote.statusType",
          "name": "status",
          "type": "uint8"
        }
      ],
      "stateMutability": "view",
      "type": "function",
      "constant": true
    },
    {
      "inputs": [
        {
          "internalType": "address",
          "name": "",
          "type": "address"
        }
      ],
      "name": "registeredCandidates",
      "outputs": [
        {
          "internalType": "bool",
          "name": "",
          "type": "bool"
        }
      ],
      "stateMutability": "view",
      "type": "function",
      "constant": true
    },
    {
      "inputs": [
        {
          "internalType": "string",
          "name": "electionName",
          "type": "string"
        },
        {
          "internalType": "string",
          "name": "role",
          "type": "string"
        }
      ],
      "name": "createElection",
      "outputs": [],
      "stateMutability": "nonpayable",
      "type": "function"
    },
    {
      "inputs": [
        {
          "internalType": "string",
          "name": "electionName",
          "type": "string"
        }
      ],
      "name": "startElection",
      "outputs": [],
      "stateMutability": "nonpayable",
      "type": "function"
    },
    {
      "inputs": [
        {
          "internalType": "string",
          "name": "electionName",
          "type": "string"
        }
      ],
      "name": "stopElection",
      "outputs": [],
      "stateMutability": "nonpayable",
      "type": "function"
    },
    {
      "inputs": [
        {
          "internalType": "string",
          "name": "electionName",
          "type": "string"
        },
        {
          "internalType": "string",
          "name": "candidateName",
          "type": "string"
        },
        {
          "internalType": "address",
          "name": "candidateAddress",
          "type": "address"
        },
        {
          "internalType": "string",
          "name": "symbol",
          "type": "string"
        }
      ],
      "name": "registerCandidate",
      "outputs": [],
      "stateMutability": "nonpayable",
      "type": "function"
    },
    {
      "inputs": [
        {
          "internalType": "string",
          "name": "electionName",
          "type": "string"
        },
        {
          "internalType": "string",
          "name": "candidateName",
          "type": "string"
        },
        {
          "internalType": "string",
          "name": "identifier",
          "type": "string"
        }
      ],
      "name": "vote",
      "outputs": [],
      "stateMutability": "nonpayable",
      "type": "function"
    },
    {
      "inputs": [
        {
          "internalType": "string",
          "name": "electionName",
          "type": "string"
        }
      ],
      "name": "declareWinner",
      "outputs": [],
      "stateMutability": "nonpayable",
      "type": "function"
    },
    {
      "inputs": [
        {
          "internalType": "string",
          "name": "electionName",
          "type": "string"
        }
      ],
      "name": "getElectionData",
      "outputs": [
        {
          "internalType": "bool",
          "name": "",
          "type": "bool"
        },
        {
          "internalType": "string",
          "name": "",
          "type": "string"
        },
        {
          "internalType": "string",
          "name": "",
          "type": "string"
        },
        {
          "internalType": "uint256",
          "name": "",
          "type": "uint256"
        },
        {
          "internalType": "enum Vote.statusType",
          "name": "",
          "type": "uint8"
        }
      ],
      "stateMutability": "view",
      "type": "function",
      "constant": true
    },
    {
      "inputs": [],
      "name": "getActiveElections",
      "outputs": [
        {
          "internalType": "string[]",
          "name": "",
          "type": "string[]"
        },
        {
          "internalType": "string[]",
          "name": "",
          "type": "string[]"
        },
        {
          "internalType": "uint256[]",
          "name": "",
          "type": "uint256[]"
        },
        {
          "internalType": "bool[]",
          "name": "",
          "type": "bool[]"
        }
      ],
      "stateMutability": "view",
      "type": "function",
      "constant": true
    },
    {
      "inputs": [
        {
          "internalType": "string",
          "name": "electionName",
          "type": "string"
        }
      ],
      "name": "getCandidatesForElection",
      "outputs": [
        {
          "internalType": "string[]",
          "name": "",
          "type": "string[]"
        },
        {
          "internalType": "string[]",
          "name": "",
          "type": "string[]"
        }
      ],
      "stateMutability": "view",
      "type": "function",
      "constant": true
    },
    {
      "inputs": [
        {
          "internalType": "string",
          "name": "electionName",
          "type": "string"
        }
      ],
      "name": "isElectionActive",
      "outputs": [
        {
          "internalType": "bool",
          "name": "",
          "type": "bool"
        }
      ],
      "stateMutability": "view",
      "type": "function",
      "constant": true
    },
    {
      "inputs": [
        {
          "internalType": "string",
          "name": "candidateName",
          "type": "string"
        }
      ],
      "name": "isCandidateRegistered",
      "outputs": [
        {
          "internalType": "bool",
          "name": "",
          "type": "bool"
        }
      ],
      "stateMutability": "view",
      "type": "function",
      "constant": true
    },
    {
      "inputs": [
        {
          "internalType": "string",
          "name": "electionName",
          "type": "string"
        }
      ],
      "name": "hasElectionDeclaredWinner",
      "outputs": [
        {
          "internalType": "bool",
          "name": "",
          "type": "bool"
        }
      ],
      "stateMutability": "view",
      "type": "function",
      "constant": true
    },
    {
      "inputs": [],
      "name": "isOwner",
      "outputs": [
        {
          "internalType": "bool",
          "name": "",
          "type": "bool"
        }
      ],
      "stateMutability": "view",
      "type": "function",
      "constant": true
    }
  ],
  "bytecode": "0x608060405234801561001057600080fd5b50336000806101000a81548173ffffffffffffffffffffffffffffffffffffffff021916908373ffffffffffffffffffffffffffffffffffffffff160217905550612f67806100606000396000f3fe608060405234801561001057600080fd5b506004361061010b5760003560e01c80638a3b63b0116100a2578063c5539cc211610071578063c5539cc2146102d3578063e11c9acb14610306578063f49105a714610337578063f544bed814610367578063ff816563146103835761010b565b80638a3b63b01461025c5780638f32d59b1461027d57806395f59fe11461029b578063bd27eca0146102b75761010b565b8063565e802a116100de578063565e802a146101c45780635c1e7bec146101f45780636e208684146102245780638082f66c146102405761010b565b8063014e9f031461011057806339d59bb31461012c5780634150f6bf1461015c5780634a3ccc9614610190575b600080fd5b61012a60048036038101906101259190611de4565b6103b3565b005b61014660048036038101906101419190611e63565b610666565b6040516101539190611f0f565b60405180910390f35b61017660048036038101906101719190611de4565b610712565b604051610187959493929190611fd2565b60405180910390f35b6101aa60048036038101906101a59190611de4565b610907565b6040516101bb959493929190611fd2565b60405180910390f35b6101de60048036038101906101d99190611de4565b610a7d565b6040516101eb9190612033565b60405180910390f35b61020e600480360381019061020991906120ac565b610ab6565b60405161021b9190612033565b60405180910390f35b61023e60048036038101906102399190611de4565b610ad6565b005b61025a600480360381019061025591906120d9565b610ba4565b005b610264610e4a565b604051610274949392919061241c565b60405180910390f35b61028561120b565b6040516102929190612033565b60405180910390f35b6102b560048036038101906102b0919061247d565b611262565b005b6102d160048036038101906102cc9190612524565b611566565b005b6102ed60048036038101906102e89190611de4565b6116ff565b6040516102fd949392919061259c565b60405180910390f35b610320600480360381019061031b9190611de4565b6118dd565b60405161032e9291906125f6565b60405180910390f35b610351600480360381019061034c9190611de4565b611b37565b60405161035e9190612033565b60405180910390f35b610381600480360381019061037c9190611de4565b611b6f565b005b61039d60048036038101906103989190611de4565b611c3f565b6040516103aa9190612033565b60405180910390f35b6103bc81611c3f565b156103fc576040517f08c379a00000000000000000000000000000000000000000000000000000000081526004016103f39061269f565b60405180910390fd5b61040581611b37565b15610445576040517f08c379a000000000000000000000000000000000000000000000000000000000815260040161043c9061270b565b60405180910390fd5b60006002826040516104579190612767565b9081526020016040518091039020905060008160040180549050116104b1576040517f08c379a00000000000000000000000000000000000000000000000000000000081526004016104a8906127f0565b60405180910390fd5b60606000805b83600401805490508110156105bd5760008460040182815481106104de576104dd612810565b5b9060005260206000200180546104f39061286e565b80601f016020809104026020016040519081016040528092919081815260200182805461051f9061286e565b801561056c5780601f106105415761010080835404028352916020019161056c565b820191906000526020600020905b81548152906001019060200180831161054f57829003601f168201915b5050505050905060006001826040516105859190612767565b9081526020016040518091039020600101549050838111156105a8578093508194505b505080806105b5906128ce565b9150506104b7565b5060006002856040516105d09190612767565b908152602001604051809103902060000160006101000a81548160ff021916908315150217905550816002856040516106099190612767565b908152602001604051809103902060010190816106269190612ac2565b507faed4763a7102273ad94b29497520516a5280d2e93fa29edcc2ea84af2b8422558483604051610658929190612b94565b60405180910390a150505050565b6004818154811061067657600080fd5b9060005260206000200160009150905080546106919061286e565b80601f01602080910402602001604051908101604052809291908181526020018280546106bd9061286e565b801561070a5780601f106106df5761010080835404028352916020019161070a565b820191906000526020600020905b8154815290600101906020018083116106ed57829003601f168201915b505050505081565b600060608060008060028660405161072a9190612767565b908152602001604051809103902060000160009054906101000a900460ff166002876040516107599190612767565b908152602001604051809103902060010160028860405161077a9190612767565b908152602001604051809103902060050160028960405161079b9190612767565b90815260200160405180910390206006015460028a6040516107bd9190612767565b908152602001604051809103902060070160009054906101000a900460ff168380546107e89061286e565b80601f01602080910402602001604051908101604052809291908181526020018280546108149061286e565b80156108615780601f1061083657610100808354040283529160200191610861565b820191906000526020600020905b81548152906001019060200180831161084457829003601f168201915b505050505093508280546108749061286e565b80601f01602080910402602001604051908101604052809291908181526020018280546108a09061286e565b80156108ed5780601f106108c2576101008083540402835291602001916108ed565b820191906000526020600020905b8154815290600101906020018083116108d057829003601f168201915b505050505092509450945094509450945091939590929450565b6002818051602081018201805184825260208301602085012081835280955050505050506000915090508060000160009054906101000a900460ff16908060010180546109539061286e565b80601f016020809104026020016040519081016040528092919081815260200182805461097f9061286e565b80156109cc5780601f106109a1576101008083540402835291602001916109cc565b820191906000526020600020905b8154815290600101906020018083116109af57829003601f168201915b5050505050908060050180546109e19061286e565b80601f0160208091040260200160405190810160405280929190818152602001828054610a0d9061286e565b8015610a5a5780601f10610a2f57610100808354040283529160200191610a5a565b820191906000526020600020905b815481529060010190602001808311610a3d57829003601f168201915b5050505050908060060154908060070160009054906101000a900460ff16905085565b600080600183604051610a909190612767565b90815260200160405180910390206000018054610aac9061286e565b9050119050919050565b60036020528060005260406000206000915054906101000a900460ff1681565b610adf81611b37565b610b1e576040517f08c379a0000000000000000000000000000000000000000000000000000000008152600401610b1590612c17565b60405180910390fd5b6000600282604051610b309190612767565b908152602001604051809103902060000160006101000a81548160ff02191690831515021790555060028082604051610b699190612767565b908152602001604051809103902060070160006101000a81548160ff02191690836002811115610b9c57610b9b611f5b565b5b021790555050565b610bad84611b37565b610bec576040517f08c379a0000000000000000000000000000000000000000000000000000000008152600401610be390612c83565b60405180910390fd5b600360008373ffffffffffffffffffffffffffffffffffffffff1673ffffffffffffffffffffffffffffffffffffffff16815260200190815260200160002060009054906101000a900460ff1615610c79576040517f08c379a0000000000000000000000000000000000000000000000000000000008152600401610c7090612d15565b60405180910390fd5b6000600285604051610c8b9190612767565b908152602001604051809103902090508060000160009054906101000a900460ff16610cec576040517f08c379a0000000000000000000000000000000000000000000000000000000008152600401610ce390612c83565b60405180910390fd5b60405180608001604052808581526020016000815260200186815260200183815250600185604051610d1e9190612767565b90815260200160405180910390206000820151816000019081610d419190612ac2565b50602082015181600101556040820151816002019081610d619190612ac2565b506060820151816003019081610d779190612ac2565b509050508060040184908060018154018082558091505060019003906000526020600020016000909190919091509081610db19190612ac2565b506001600360008573ffffffffffffffffffffffffffffffffffffffff1673ffffffffffffffffffffffffffffffffffffffff16815260200190815260200160002060006101000a81548160ff0219169083151502179055507fe473b451b4e96e58aa886e305f393b18d2d43dec5c3411ace8f4e72485e4babc8585604051610e3b929190612b94565b60405180910390a15050505050565b6060806060806000600480549050905060008167ffffffffffffffff811115610e7657610e75611cb9565b5b604051908082528060200260200182016040528015610ea957816020015b6060815260200190600190039081610e945790505b50905060008267ffffffffffffffff811115610ec857610ec7611cb9565b5b604051908082528060200260200182016040528015610efb57816020015b6060815260200190600190039081610ee65790505b50905060008367ffffffffffffffff811115610f1a57610f19611cb9565b5b604051908082528060200260200182016040528015610f485781602001602082028036833780820191505090505b50905060008467ffffffffffffffff811115610f6757610f66611cb9565b5b604051908082528060200260200182016040528015610f955781602001602082028036833780820191505090505b5090506000805b6004805490508110156111f257600060048281548110610fbf57610fbe612810565b5b906000526020600020018054610fd49061286e565b80601f01602080910402602001604051908101604052809291908181526020018280546110009061286e565b801561104d5780601f106110225761010080835404028352916020019161104d565b820191906000526020600020905b81548152906001019060200180831161103057829003601f168201915b505050505090508087848151811061106857611067612810565b5b60200260200101819052506002816040516110839190612767565b9081526020016040518091039020600501805461109f9061286e565b80601f01602080910402602001604051908101604052809291908181526020018280546110cb9061286e565b80156111185780601f106110ed57610100808354040283529160200191611118565b820191906000526020600020905b8154815290600101906020018083116110fb57829003601f168201915b50505050508684815181106111305761112f612810565b5b602002602001018190525060028160405161114b9190612767565b9081526020016040518091039020600601548584815181106111705761116f612810565b5b60200260200101818152505060028160405161118c9190612767565b908152602001604051809103902060000160009054906101000a900460ff168484815181106111be576111bd612810565b5b60200260200101901515908115158152505082806111db906128ce565b9350505080806111ea906128ce565b915050610f9c565b5084848484995099509950995050505050505090919293565b60008060009054906101000a900473ffffffffffffffffffffffffffffffffffffffff1673ffffffffffffffffffffffffffffffffffffffff163373ffffffffffffffffffffffffffffffffffffffff1614905090565b61126b83611b37565b6112aa576040517f08c379a00000000000000000000000000000000000000000000000000000000081526004016112a190612c83565b60405180910390fd5b6112b383611c3f565b156112f3576040517f08c379a00000000000000000000000000000000000000000000000000000000081526004016112ea9061269f565b60405180910390fd5b60006112fe82611c79565b90506002846040516113109190612767565b9081526020016040518091039020600201600082815260200190815260200160002060009054906101000a900460ff1615611380576040517f08c379a000000000000000000000000000000000000000000000000000000000815260040161137790612d81565b60405180910390fd5b6002846040516113909190612767565b908152602001604051809103902060030160003373ffffffffffffffffffffffffffffffffffffffff1673ffffffffffffffffffffffffffffffffffffffff16815260200190815260200160002060009054906101000a900460ff161561142c576040517f08c379a000000000000000000000000000000000000000000000000000000000815260040161142390612ded565b60405180910390fd5b600160028560405161143e9190612767565b9081526020016040518091039020600201600083815260200190815260200160002060006101000a81548160ff02191690831515021790555060016002856040516114899190612767565b908152602001604051809103902060030160003373ffffffffffffffffffffffffffffffffffffffff1673ffffffffffffffffffffffffffffffffffffffff16815260200190815260200160002060006101000a81548160ff0219169083151502179055506001836040516114fe9190612767565b90815260200160405180910390206001016000815480929190611520906128ce565b91905055507f55d6abdae2902a81f7b08dea88ada88d6ce858ae8ce1754c62b7dd2d8332d72284848460405161155893929190612e0d565b60405180910390a150505050565b61156f82611b37565b156115af576040517f08c379a00000000000000000000000000000000000000000000000000000000081526004016115a690612ea5565b60405180910390fd5b6004829080600181540180825580915050600190039060005260206000200160009091909190915090816115e39190612ac2565b5060006002836040516115f69190612767565b908152602001604051809103902060000160006101000a81548160ff0219169083151502179055508060028360405161162f9190612767565b9081526020016040518091039020600501908161164c9190612ac2565b506040518060200160405280600081525060028360405161166d9190612767565b9081526020016040518091039020600101908161168a9190612ac2565b504260028360405161169c9190612767565b90815260200160405180910390206006018190555060006002836040516116c39190612767565b908152602001604051809103902060070160006101000a81548160ff021916908360028111156116f6576116f5611f5b565b5b02179055505050565b6001818051602081018201805184825260208301602085012081835280955050505050506000915090508060000180546117389061286e565b80601f01602080910402602001604051908101604052809291908181526020018280546117649061286e565b80156117b15780601f10611786576101008083540402835291602001916117b1565b820191906000526020600020905b81548152906001019060200180831161179457829003601f168201915b5050505050908060010154908060020180546117cc9061286e565b80601f01602080910402602001604051908101604052809291908181526020018280546117f89061286e565b80156118455780601f1061181a57610100808354040283529160200191611845565b820191906000526020600020905b81548152906001019060200180831161182857829003601f168201915b50505050509080600301805461185a9061286e565b80601f01602080910402602001604051908101604052809291908181526020018280546118869061286e565b80156118d35780601f106118a8576101008083540402835291602001916118d3565b820191906000526020600020905b8154815290600101906020018083116118b657829003601f168201915b5050505050905084565b60608060006002846040516118f29190612767565b9081526020016040518091039020600401805480602002602001604051908101604052809291908181526020016000905b828210156119cf5783829060005260206000200180546119429061286e565b80601f016020809104026020016040519081016040528092919081815260200182805461196e9061286e565b80156119bb5780601f10611990576101008083540402835291602001916119bb565b820191906000526020600020905b81548152906001019060200180831161199e57829003601f168201915b505050505081526020019060010190611923565b5050505090506000815167ffffffffffffffff8111156119f2576119f1611cb9565b5b604051908082528060200260200182016040528015611a2557816020015b6060815260200190600190039081611a105790505b50905060005b8251811015611b29576001838281518110611a4957611a48612810565b5b6020026020010151604051611a5e9190612767565b90815260200160405180910390206003018054611a7a9061286e565b80601f0160208091040260200160405190810160405280929190818152602001828054611aa69061286e565b8015611af35780601f10611ac857610100808354040283529160200191611af3565b820191906000526020600020905b815481529060010190602001808311611ad657829003601f168201915b5050505050828281518110611b0b57611b0a612810565b5b60200260200101819052508080611b21906128ce565b915050611a2b565b508181935093505050915091565b6000600282604051611b499190612767565b908152602001604051809103902060000160009054906101000a900460ff169050919050565b611b7881611b37565b15611bb8576040517f08c379a0000000000000000000000000000000000000000000000000000000008152600401611baf90612f11565b60405180910390fd5b6001600282604051611bca9190612767565b908152602001604051809103902060000160006101000a81548160ff0219169083151502179055506001600282604051611c049190612767565b908152602001604051809103902060070160006101000a81548160ff02191690836002811115611c3757611c36611f5b565b5b021790555050565b600080600283604051611c529190612767565b90815260200160405180910390206001018054611c6e9061286e565b905014159050919050565b600081805190602001209050919050565b6000604051905090565b600080fd5b600080fd5b600080fd5b600080fd5b6000601f19601f8301169050919050565b7f4e487b7100000000000000000000000000000000000000000000000000000000600052604160045260246000fd5b611cf182611ca8565b810181811067ffffffffffffffff82111715611d1057611d0f611cb9565b5b80604052505050565b6000611d23611c8a565b9050611d2f8282611ce8565b919050565b600067ffffffffffffffff821115611d4f57611d4e611cb9565b5b611d5882611ca8565b9050602081019050919050565b82818337600083830152505050565b6000611d87611d8284611d34565b611d19565b905082815260208101848484011115611da357611da2611ca3565b5b611dae848285611d65565b509392505050565b600082601f830112611dcb57611dca611c9e565b5b8135611ddb848260208601611d74565b91505092915050565b600060208284031215611dfa57611df9611c94565b5b600082013567ffffffffffffffff811115611e1857611e17611c99565b5b611e2484828501611db6565b91505092915050565b6000819050919050565b611e4081611e2d565b8114611e4b57600080fd5b50565b600081359050611e5d81611e37565b92915050565b600060208284031215611e7957611e78611c94565b5b6000611e8784828501611e4e565b91505092915050565b600081519050919050565b600082825260208201905092915050565b60005b83811015611eca578082015181840152602081019050611eaf565b60008484015250505050565b6000611ee182611e90565b611eeb8185611e9b565b9350611efb818560208601611eac565b611f0481611ca8565b840191505092915050565b60006020820190508181036000830152611f298184611ed6565b905092915050565b60008115159050919050565b611f4681611f31565b82525050565b611f5581611e2d565b82525050565b7f4e487b7100000000000000000000000000000000000000000000000000000000600052602160045260246000fd5b60038110611f9b57611f9a611f5b565b5b50565b6000819050611fac82611f8a565b919050565b6000611fbc82611f9e565b9050919050565b611fcc81611fb1565b82525050565b600060a082019050611fe76000830188611f3d565b8181036020830152611ff98187611ed6565b9050818103604083015261200d8186611ed6565b905061201c6060830185611f4c565b6120296080830184611fc3565b9695505050505050565b60006020820190506120486000830184611f3d565b92915050565b600073ffffffffffffffffffffffffffffffffffffffff82169050919050565b60006120798261204e565b9050919050565b6120898161206e565b811461209457600080fd5b50565b6000813590506120a681612080565b92915050565b6000602082840312156120c2576120c1611c94565b5b60006120d084828501612097565b91505092915050565b600080600080608085870312156120f3576120f2611c94565b5b600085013567ffffffffffffffff81111561211157612110611c99565b5b61211d87828801611db6565b945050602085013567ffffffffffffffff81111561213e5761213d611c99565b5b61214a87828801611db6565b935050604061215b87828801612097565b925050606085013567ffffffffffffffff81111561217c5761217b611c99565b5b61218887828801611db6565b91505092959194509250565b600081519050919050565b600082825260208201905092915050565b6000819050602082019050919050565b600082825260208201905092915050565b60006121dc82611e90565b6121e681856121c0565b93506121f6818560208601611eac565b6121ff81611ca8565b840191505092915050565b600061221683836121d1565b905092915050565b6000602082019050919050565b600061223682612194565b612240818561219f565b935083602082028501612252856121b0565b8060005b8581101561228e578484038952815161226f858261220a565b945061227a8361221e565b925060208a01995050600181019050612256565b50829750879550505050505092915050565b600081519050919050565b600082825260208201905092915050565b6000819050602082019050919050565b6122d581611e2d565b82525050565b60006122e783836122cc565b60208301905092915050565b6000602082019050919050565b600061230b826122a0565b61231581856122ab565b9350612320836122bc565b8060005b8381101561235157815161233888826122db565b9750612343836122f3565b925050600181019050612324565b5085935050505092915050565b600081519050919050565b600082825260208201905092915050565b6000819050602082019050919050565b61239381611f31565b82525050565b60006123a5838361238a565b60208301905092915050565b6000602082019050919050565b60006123c98261235e565b6123d38185612369565b93506123de8361237a565b8060005b8381101561240f5781516123f68882612399565b9750612401836123b1565b9250506001810190506123e2565b5085935050505092915050565b60006080820190508181036000830152612436818761222b565b9050818103602083015261244a818661222b565b9050818103604083015261245e8185612300565b9050818103606083015261247281846123be565b905095945050505050565b60008060006060848603121561249657612495611c94565b5b600084013567ffffffffffffffff8111156124b4576124b3611c99565b5b6124c086828701611db6565b935050602084013567ffffffffffffffff8111156124e1576124e0611c99565b5b6124ed86828701611db6565b925050604084013567ffffffffffffffff81111561250e5761250d611c99565b5b61251a86828701611db6565b9150509250925092565b6000806040838503121561253b5761253a611c94565b5b600083013567ffffffffffffffff81111561255957612558611c99565b5b61256585828601611db6565b925050602083013567ffffffffffffffff81111561258657612585611c99565b5b61259285828601611db6565b9150509250929050565b600060808201905081810360008301526125b68187611ed6565b90506125c56020830186611f4c565b81810360408301526125d78185611ed6565b905081810360608301526125eb8184611ed6565b905095945050505050565b60006040820190508181036000830152612610818561222b565b90508181036020830152612624818461222b565b90509392505050565b7f57696e6e657220616c7265616479206465636c6172656420666f72207468697360008201527f20656c656374696f6e2e00000000000000000000000000000000000000000000602082015250565b6000612689602a83611e9b565b91506126948261262d565b604082019050919050565b600060208201905081810360008301526126b88161267c565b9050919050565b7f456c656374696f6e206973207374696c6c206163746976652e00000000000000600082015250565b60006126f5601983611e9b565b9150612700826126bf565b602082019050919050565b60006020820190508181036000830152612724816126e8565b9050919050565b600081905092915050565b600061274182611e90565b61274b818561272b565b935061275b818560208601611eac565b80840191505092915050565b60006127738284612736565b915081905092915050565b7f4e6f2063616e64696461746573207265676973746572656420666f722074686960008201527f7320656c656374696f6e2e000000000000000000000000000000000000000000602082015250565b60006127da602b83611e9b565b91506127e58261277e565b604082019050919050565b60006020820190508181036000830152612809816127cd565b9050919050565b7f4e487b7100000000000000000000000000000000000000000000000000000000600052603260045260246000fd5b7f4e487b7100000000000000000000000000000000000000000000000000000000600052602260045260246000fd5b6000600282049050600182168061288657607f821691505b6020821081036128995761289861283f565b5b50919050565b7f4e487b7100000000000000000000000000000000000000000000000000000000600052601160045260246000fd5b60006128d982611e2d565b91507fffffffffffffffffffffffffffffffffffffffffffffffffffffffffffffffff820361290b5761290a61289f565b5b600182019050919050565b60008190508160005260206000209050919050565b60006020601f8301049050919050565b600082821b905092915050565b6000600883026129787fffffffffffffffffffffffffffffffffffffffffffffffffffffffffffffffff8261293b565b612982868361293b565b95508019841693508086168417925050509392505050565b6000819050919050565b60006129bf6129ba6129b584611e2d565b61299a565b611e2d565b9050919050565b6000819050919050565b6129d9836129a4565b6129ed6129e5826129c6565b848454612948565b825550505050565b600090565b612a026129f5565b612a0d8184846129d0565b505050565b5b81811015612a3157612a266000826129fa565b600181019050612a13565b5050565b601f821115612a7657612a4781612916565b612a508461292b565b81016020851015612a5f578190505b612a73612a6b8561292b565b830182612a12565b50505b505050565b600082821c905092915050565b6000612a9960001984600802612a7b565b1980831691505092915050565b6000612ab28383612a88565b9150826002028217905092915050565b612acb82611e90565b67ffffffffffffffff811115612ae457612ae3611cb9565b5b612aee825461286e565b612af9828285612a35565b600060209050601f831160018114612b2c5760008415612b1a578287015190505b612b248582612aa6565b865550612b8c565b601f198416612b3a86612916565b60005b82811015612b6257848901518255600182019150602085019450602081019050612b3d565b86831015612b7f5784890151612b7b601f891682612a88565b8355505b6001600288020188555050505b505050505050565b60006040820190508181036000830152612bae8185611ed6565b90508181036020830152612bc28184611ed6565b90509392505050565b7f456c656374696f6e20697320616c72656479206e6f74206163746976652e0000600082015250565b6000612c01601e83611e9b565b9150612c0c82612bcb565b602082019050919050565b60006020820190508181036000830152612c3081612bf4565b9050919050565b7f456c656374696f6e206973206e6f74206163746976652e000000000000000000600082015250565b6000612c6d601783611e9b565b9150612c7882612c37565b602082019050919050565b60006020820190508181036000830152612c9c81612c60565b9050919050565b7f416c7265616479207265676973746572656420617320612063616e646964617460008201527f652e000000000000000000000000000000000000000000000000000000000000602082015250565b6000612cff602283611e9b565b9150612d0a82612ca3565b604082019050919050565b60006020820190508181036000830152612d2e81612cf2565b9050919050565b7f4964656e74696669657220616c726561647920757365642e0000000000000000600082015250565b6000612d6b601883611e9b565b9150612d7682612d35565b602082019050919050565b60006020820190508181036000830152612d9a81612d5e565b9050919050565b7f5075626c696320496420616c726561647920757365642e000000000000000000600082015250565b6000612dd7601783611e9b565b9150612de282612da1565b602082019050919050565b60006020820190508181036000830152612e0681612dca565b9050919050565b60006060820190508181036000830152612e278186611ed6565b90508181036020830152612e3b8185611ed6565b90508181036040830152612e4f8184611ed6565b9050949350505050565b7f456c656374696f6e20616c7265616479206578697374732e0000000000000000600082015250565b6000612e8f601883611e9b565b9150612e9a82612e59565b602082019050919050565b60006020820190508181036000830152612ebe81612e82565b9050919050565b7f456c656374696f6e20697320616c72656479206163746976652e000000000000600082015250565b6000612efb601a83611e9b565b9150612f0682612ec5565b602082019050919050565b60006020820190508181036000830152612f2a81612eee565b905091905056fea2646970667358221220fca8b2e5c250ed5610a1d9e751165838da4f1aef3638353371a2e27fa25180a664736f6c63430008110033",
  "immutableReferences": {},
  "source": "pragma solidity ^0.8.17;\r\n\r\ncontract Vote {\r\n\r\n    address internal owner;\r\n\r\n    constructor() {\r\n        owner = msg.sender;\r\n    }\r\n    enum statusType{ start, end, declare }\r\n    struct Candidate {\r\n        string name;\r\n        uint256 voteCount;\r\n        string registeredElection;\r\n        string symbol;\r\n    }\r\n\r\n    struct Election {\r\n        bool isActive;\r\n        string winner;\r\n        mapping(bytes32 => bool) usedIdentifiers;\r\n        mapping(address => bool) usedId;\r\n        string[] candidateNames;\r\n        string role;\r\n        uint256 timestamp;\r\n        statusType status;\r\n    }\r\n\r\n\r\n    mapping(string => Candidate) public candidates;\r\n    mapping(string => Election) public elections;\r\n    mapping(address => bool) public registeredCandidates;\r\n    string[] public electionNames;\r\n\r\n    // Event emitted when a candidate is registered\r\n    event CandidateRegistered(string electionName, string candidateName);\r\n\r\n    // Event emitted when a vote is casted\r\n    event VoteCasted(string electionName, string candidateName, string identifier);\r\n\r\n    // Event emitted when the winner is declared for an election\r\n    event WinnerDeclared(string electionName, string winnerName);\r\n\r\n    // Create a new election\r\n    function createElection(string memory electionName,string memory role) external {\r\n        require(!isElectionActive(electionName), \"Election already exists.\");\r\n        electionNames.push(electionName);\r\n        elections[electionName].isActive = false;\r\n        elections[electionName].role = role;\r\n        elections[electionName].winner = '';\r\n        elections[electionName].timestamp = block.timestamp;\r\n        elections[electionName].status = statusType.start;\r\n    }\r\n\r\n    function startElection(string memory electionName) external {\r\n        require(!isElectionActive(electionName), \"Election is alredy active.\");\r\n        elections[electionName].isActive = true;\r\n        elections[electionName].status = statusType.end;\r\n    }\r\n\r\n    function stopElection(string memory electionName) external {\r\n        require(isElectionActive(electionName), \"Election is alredy not active.\");\r\n        elections[electionName].isActive = false;\r\n        elections[electionName].status = statusType.declare;\r\n    }\r\n\r\n    // Register as a candidate for an election\r\n    function registerCandidate(string memory electionName, string memory candidateName,address candidateAddress,string memory symbol) external {\r\n        require(isElectionActive(electionName), \"Election is not active.\");\r\n        require(!registeredCandidates[candidateAddress], \"Already registered as a candidate.\");\r\n\r\n        Election storage election = elections[electionName];\r\n        require(election.isActive, \"Election is not active.\");\r\n\r\n        candidates[candidateName] = Candidate(candidateName, 0, electionName,symbol);\r\n        election.candidateNames.push(candidateName);\r\n        registeredCandidates[candidateAddress] = true;\r\n\r\n        emit CandidateRegistered(electionName, candidateName);\r\n    }\r\n\r\n    // Vote for a candidate in an election\r\n    function vote(string memory electionName, string memory candidateName, string memory identifier) external {\r\n        require(isElectionActive(electionName), \"Election is not active.\");\r\n        // require(isCandidateRegistered(candidateName), \"Candidate is not registered.\");\r\n        require(!hasElectionDeclaredWinner(electionName), \"Winner already declared for this election.\");\r\n        bytes32 hashedIdentifier = hash(identifier);\r\n        require(!elections[electionName].usedIdentifiers[hashedIdentifier], \"Identifier already used.\");\r\n        require(!elections[electionName].usedId[msg.sender], \"Public Id already used.\");\r\n        elections[electionName].usedIdentifiers[hashedIdentifier] = true;\r\n        elections[electionName].usedId[msg.sender] = true;\r\n        candidates[candidateName].voteCount++;\r\n        emit VoteCasted(electionName, candidateName, identifier);\r\n    }\r\n\r\n    // Declare the winner for an election\r\n    function declareWinner(string memory electionName) external {\r\n        require(!hasElectionDeclaredWinner(electionName), \"Winner already declared for this election.\");\r\n        require(!isElectionActive(electionName), \"Election is still active.\");\r\n\r\n        Election storage election = elections[electionName];\r\n        require(election.candidateNames.length > 0, \"No candidates registered for this election.\");\r\n\r\n        string memory winnerName;\r\n        uint256 maxVotes = 0;\r\n\r\n        for (uint256 i = 0; i < election.candidateNames.length; i++) {\r\n            string memory candidateName = election.candidateNames[i];\r\n            uint256 voteCount = candidates[candidateName].voteCount;\r\n\r\n            if (voteCount > maxVotes) {\r\n                maxVotes = voteCount;\r\n                winnerName = candidateName;\r\n            }\r\n        }\r\n        elections[electionName].isActive = false;\r\n        elections[electionName].winner = winnerName;\r\n        emit WinnerDeclared(electionName, winnerName);\r\n    }\r\n\r\n    function getElectionData(string memory electionName) public view returns (bool,string memory,string memory,uint256,statusType) {\r\n        return (elections[electionName].isActive,elections[electionName].winner,elections[electionName].role,elections[electionName].timestamp,elections[electionName].status);\r\n    }\r\n\r\n    // Function to get all active elections\r\n    function getActiveElections() public view returns (string[] memory,string[] memory,uint256[] memory,bool[] memory) {\r\n        uint256 activeCount = electionNames.length;\r\n        string[] memory electionNamesArray = new string[](activeCount);\r\n        string[] memory electionRolesArray = new string[](activeCount);\r\n        uint256[] memory electionTimestampsArray = new uint256[](activeCount);\r\n        bool[] memory electionActive = new bool[](activeCount);\r\n\r\n        uint256 currentIndex = 0;\r\n        // Populate arrays with active election details\r\n        for (uint256 i = 0; i < electionNames.length; i++) {\r\n            string memory electionName = electionNames[i];\r\n            electionNamesArray[currentIndex] = electionName;\r\n            electionRolesArray[currentIndex] = elections[electionName].role;\r\n            electionTimestampsArray[currentIndex] = elections[electionName].timestamp;\r\n            electionActive[currentIndex] = elections[electionName].isActive;\r\n            currentIndex++;\r\n        }\r\n\r\n        return (electionNamesArray, electionRolesArray, electionTimestampsArray,electionActive);\r\n    }\r\n\r\n    // Get the candidates participating in a specific election\r\n    function getCandidatesForElection(string memory electionName) public view returns (string[] memory,string[] memory) {\r\n        string[] memory cn = elections[electionName].candidateNames;\r\n        string[] memory csl = new string[](cn.length);\r\n        for(uint i = 0; i < cn.length; i++){\r\n            csl[i] = candidates[cn[i]].symbol;\r\n        }\r\n        return (cn,csl);\r\n    }\r\n\r\n    // Check if an election is active\r\n    function isElectionActive(string memory electionName) public view returns (bool) {\r\n        return elections[electionName].isActive;\r\n    }\r\n\r\n    // Check if a candidate is registered\r\n    function isCandidateRegistered(string memory candidateName) public view returns (bool) {\r\n        return bytes(candidates[candidateName].name).length > 0;\r\n    }\r\n\r\n    // Check if an election has declared a winner\r\n    function hasElectionDeclaredWinner(string memory electionName) public view returns (bool) {\r\n        return bytes(elections[electionName].winner).length != 0;\r\n    }\r\n\r\n    // Hashes the identifier using a cryptographic hash function (SHA-256)\r\n    function hash(string memory identifier) internal pure returns (bytes32) {\r\n        return keccak256(bytes(identifier));\r\n    }\r\n\r\n    function isOwner() public view returns(bool){\r\n        return msg.sender == owner;\r\n    }\r\n}\r\n\r\n",
  "sourcePath": "D:\\projects\\votify-app\\contracts\\Vote.sol",
  "compiler": {
    "name": "solc",
    "version": "0.8.17+commit.8df45f5f.Emscripten.clang"
  },
  "schemaVersion": "3.4.10",
  "updatedAt": "2023-06-04T14:55:38.777Z",
  "networkType": "ethereum",
  "devdoc": {
    "kind": "dev",
    "methods": {},
    "version": 1
  },
  "userdoc": {
    "kind": "user",
    "methods": {},
    "version": 1
  }
}